{
  "_format": "hh-sol-artifact-1",
  "contractName": "Voting",
  "sourceName": "contracts/Voting.sol",
  "abi": [
    {
      "inputs": [
        {
          "internalType": "string",
          "name": "_proposal",
          "type": "string"
        },
        {
          "internalType": "string[]",
          "name": "_options",
          "type": "string[]"
        },
        {
          "internalType": "uint256",
          "name": "votingPeriod",
          "type": "uint256"
        },
        {
          "internalType": "address[]",
          "name": "_voters",
          "type": "address[]"
        }
      ],
      "stateMutability": "nonpayable",
      "type": "constructor"
    },
    {
      "inputs": [],
      "name": "ECDSAInvalidSignature",
      "type": "error"
    },
    {
      "inputs": [
        {
          "internalType": "uint256",
          "name": "length",
          "type": "uint256"
        }
      ],
      "name": "ECDSAInvalidSignatureLength",
      "type": "error"
    },
    {
      "inputs": [
        {
          "internalType": "bytes32",
          "name": "s",
          "type": "bytes32"
        }
      ],
      "name": "ECDSAInvalidSignatureS",
      "type": "error"
    },
    {
      "inputs": [],
      "name": "InvalidShortString",
      "type": "error"
    },
    {
      "inputs": [],
      "name": "SignerNotMessageSender",
      "type": "error"
    },
    {
      "inputs": [],
      "name": "SignerNotOwner",
      "type": "error"
    },
    {
      "inputs": [
        {
          "internalType": "string",
          "name": "str",
          "type": "string"
        }
      ],
      "name": "StringTooLong",
      "type": "error"
    },
    {
      "anonymous": false,
      "inputs": [],
      "name": "EIP712DomainChanged",
      "type": "event"
    },
    {
      "inputs": [],
      "name": "eip712Domain",
      "outputs": [
        {
          "internalType": "bytes1",
          "name": "fields",
          "type": "bytes1"
        },
        {
          "internalType": "string",
          "name": "name",
          "type": "string"
        },
        {
          "internalType": "string",
          "name": "version",
          "type": "string"
        },
        {
          "internalType": "uint256",
          "name": "chainId",
          "type": "uint256"
        },
        {
          "internalType": "address",
          "name": "verifyingContract",
          "type": "address"
        },
        {
          "internalType": "bytes32",
          "name": "salt",
          "type": "bytes32"
        },
        {
          "internalType": "uint256[]",
          "name": "extensions",
          "type": "uint256[]"
        }
      ],
      "stateMutability": "view",
      "type": "function"
    },
    {
      "inputs": [],
      "name": "finalize",
      "outputs": [],
      "stateMutability": "nonpayable",
      "type": "function"
    },
    {
      "inputs": [
        {
          "components": [
            {
              "internalType": "bytes32",
              "name": "publicKey",
              "type": "bytes32"
            },
            {
              "internalType": "bytes",
              "name": "signature",
              "type": "bytes"
            }
          ],
          "internalType": "struct Permission",
          "name": "signature",
          "type": "tuple"
        }
      ],
      "name": "getUserVote",
      "outputs": [
        {
          "internalType": "bytes",
          "name": "",
          "type": "bytes"
        }
      ],
      "stateMutability": "view",
      "type": "function"
    },
    {
      "inputs": [
        {
          "internalType": "uint256",
          "name": "",
          "type": "uint256"
        }
      ],
      "name": "options",
      "outputs": [
        {
          "internalType": "string",
          "name": "",
          "type": "string"
        }
      ],
      "stateMutability": "view",
      "type": "function"
    },
    {
      "inputs": [],
      "name": "proposal",
      "outputs": [
        {
          "internalType": "string",
          "name": "",
          "type": "string"
        }
      ],
      "stateMutability": "view",
      "type": "function"
    },
    {
      "inputs": [
        {
          "components": [
            {
              "internalType": "bytes",
              "name": "data",
              "type": "bytes"
            }
          ],
          "internalType": "struct inEuint8",
          "name": "voteBytes",
          "type": "tuple"
        }
      ],
      "name": "vote",
      "outputs": [],
      "stateMutability": "nonpayable",
      "type": "function"
    },
    {
      "inputs": [],
      "name": "voteEndTime",
      "outputs": [
        {
          "internalType": "uint256",
          "name": "",
          "type": "uint256"
        }
      ],
      "stateMutability": "view",
      "type": "function"
    },
    {
      "inputs": [
        {
          "internalType": "address",
          "name": "",
          "type": "address"
        }
      ],
      "name": "voters",
      "outputs": [
        {
          "internalType": "bool",
          "name": "",
          "type": "bool"
        }
      ],
      "stateMutability": "view",
      "type": "function"
    },
    {
      "inputs": [],
      "name": "winning",
      "outputs": [
        {
          "internalType": "uint8",
          "name": "",
          "type": "uint8"
        },
        {
          "internalType": "uint16",
          "name": "",
          "type": "uint16"
        }
      ],
      "stateMutability": "view",
      "type": "function"
    }
  ],
  "bytecode": "0x6101606040526200001760106200038a60201b60201c565b6002556040518060800160405280620000376000620003a660201b60201c565b81526020016200004e6001620003a660201b60201c565b8152602001620000656002620003a660201b60201c565b81526020016200007c6003620003a660201b60201c565b81525060039060046200009192919062000630565b506040518060800160405280620000af6000620003c260201b60201c565b8152602001620000c66000620003c260201b60201c565b8152602001620000dd6000620003c260201b60201c565b8152602001620000f46000620003c260201b60201c565b815250600a9060046200010992919062000675565b503480156200011757600080fd5b5060405162003d0138038062003d0183398181016040528101906200013d919062000bea565b6040518060400160405280601181526020017f4668656e6978205065726d697373696f6e0000000000000000000000000000008152506040518060400160405280600381526020017f312e300000000000000000000000000000000000000000000000000000000000815250620001bf600083620003de60201b90919060201c565b6101208181525050620001dd600182620003de60201b90919060201c565b6101408181525050818051906020012060e08181525050808051906020012061010081815250504660a081815250506200021c6200043660201b60201c565b608081815250503073ffffffffffffffffffffffffffffffffffffffff1660c08173ffffffffffffffffffffffffffffffffffffffff16815250505050600460ff166008805490501115620002a8576040517f08c379a00000000000000000000000000000000000000000000000000000000081526004016200029f9062000d1a565b60405180910390fd5b8360079081620002b9919062000f7d565b508260089080519060200190620002d2929190620006ba565b508142620002e1919062001093565b60098190555060005b81518110156200037f5760016010600084848151811062000310576200030f620010ce565b5b602002602001015173ffffffffffffffffffffffffffffffffffffffff1673ffffffffffffffffffffffffffffffffffffffff16815260200190815260200160002060006101000a81548160ff02191690831515021790555080806200037690620010fd565b915050620002ea565b505050505062001494565b60006200039f8260026200049360201b60201c565b9050919050565b6000620003bb8260006200049360201b60201c565b9050919050565b6000620003d78260016200049360201b60201c565b9050919050565b60006020835110156200040457620003fc836200054a60201b60201c565b905062000430565b826200041683620005b760201b60201c565b600001908162000427919062000f7d565b5060ff60001b90505b92915050565b60007f8b73c3c69bb8fe3d512ecc4cf759cc79239f7b179b0ffacaa9a75d522b39400f60e0516101005146306040516020016200047895949392919062001187565b60405160208183030381529060405280519060200120905090565b60006060608073ffffffffffffffffffffffffffffffffffffffff166319e1c5c4620004c586620005c160201b60201c565b856040518363ffffffff1660e01b8152600401620004e59291906200125f565b600060405180830381865afa15801562000503573d6000803e3d6000fd5b505050506040513d6000823e3d601f19601f820116820180604052508101906200052e919062001347565b905062000541816200062260201b60201c565b91505092915050565b600080829050601f815111156200059a57826040517f305a27a9000000000000000000000000000000000000000000000000000000008152600401620005919190620013d9565b60405180910390fd5b805181620005a89062001424565b60001c1760001b915050919050565b6000819050919050565b6060602067ffffffffffffffff811115620005e157620005e062000814565b5b6040519080825280601f01601f191660200182016040528015620006145781602001600182028036833780820191505090505b509050816020820152919050565b600060208201519050919050565b826004810192821562000662579160200282015b828111156200066157825182559160200191906001019062000644565b5b5090506200067191906200071a565b5090565b8260048101928215620006a7579160200282015b82811115620006a657825182559160200191906001019062000689565b5b509050620006b6919062000739565b5090565b82805482825590600052602060002090810192821562000707579160200282015b8281111562000706578251829081620006f5919062000f7d565b5091602001919060010190620006db565b5b50905062000716919062000758565b5090565b5b80821115620007355760008160009055506001016200071b565b5090565b5b80821115620007545760008160009055506001016200073a565b5090565b5b808211156200077c576000818162000772919062000780565b5060010162000759565b5090565b5080546200078e9062000d76565b6000825580601f10620007a25750620007c3565b601f016020900490600052602060002090810190620007c29190620007c6565b5b50565b5b80821115620007e1576000816000905550600101620007c7565b5090565b6000604051905090565b600080fd5b600080fd5b600080fd5b600080fd5b6000601f19601f8301169050919050565b7f4e487b7100000000000000000000000000000000000000000000000000000000600052604160045260246000fd5b6200084e8262000803565b810181811067ffffffffffffffff8211171562000870576200086f62000814565b5b80604052505050565b600062000885620007e5565b905062000893828262000843565b919050565b600067ffffffffffffffff821115620008b657620008b562000814565b5b620008c18262000803565b9050602081019050919050565b60005b83811015620008ee578082015181840152602081019050620008d1565b60008484015250505050565b6000620009116200090b8462000898565b62000879565b90508281526020810184848401111562000930576200092f620007fe565b5b6200093d848285620008ce565b509392505050565b600082601f8301126200095d576200095c620007f9565b5b81516200096f848260208601620008fa565b91505092915050565b600067ffffffffffffffff82111562000996576200099562000814565b5b602082029050602081019050919050565b600080fd5b6000620009c3620009bd8462000978565b62000879565b90508083825260208201905060208402830185811115620009e957620009e8620009a7565b5b835b8181101562000a3757805167ffffffffffffffff81111562000a125762000a11620007f9565b5b80860162000a21898262000945565b85526020850194505050602081019050620009eb565b5050509392505050565b600082601f83011262000a595762000a58620007f9565b5b815162000a6b848260208601620009ac565b91505092915050565b6000819050919050565b62000a898162000a74565b811462000a9557600080fd5b50565b60008151905062000aa98162000a7e565b92915050565b600067ffffffffffffffff82111562000acd5762000acc62000814565b5b602082029050602081019050919050565b600073ffffffffffffffffffffffffffffffffffffffff82169050919050565b600062000b0b8262000ade565b9050919050565b62000b1d8162000afe565b811462000b2957600080fd5b50565b60008151905062000b3d8162000b12565b92915050565b600062000b5a62000b548462000aaf565b62000879565b9050808382526020820190506020840283018581111562000b805762000b7f620009a7565b5b835b8181101562000bad578062000b98888262000b2c565b84526020840193505060208101905062000b82565b5050509392505050565b600082601f83011262000bcf5762000bce620007f9565b5b815162000be184826020860162000b43565b91505092915050565b6000806000806080858703121562000c075762000c06620007ef565b5b600085015167ffffffffffffffff81111562000c285762000c27620007f4565b5b62000c368782880162000945565b945050602085015167ffffffffffffffff81111562000c5a5762000c59620007f4565b5b62000c688782880162000a41565b935050604062000c7b8782880162000a98565b925050606085015167ffffffffffffffff81111562000c9f5762000c9e620007f4565b5b62000cad8782880162000bb7565b91505092959194509250565b600082825260208201905092915050565b7f746f6f206d616e79206f7074696f6e7321000000000000000000000000000000600082015250565b600062000d0260118362000cb9565b915062000d0f8262000cca565b602082019050919050565b6000602082019050818103600083015262000d358162000cf3565b9050919050565b600081519050919050565b7f4e487b7100000000000000000000000000000000000000000000000000000000600052602260045260246000fd5b6000600282049050600182168062000d8f57607f821691505b60208210810362000da55762000da462000d47565b5b50919050565b60008190508160005260206000209050919050565b60006020601f8301049050919050565b600082821b905092915050565b60006008830262000e0f7fffffffffffffffffffffffffffffffffffffffffffffffffffffffffffffffff8262000dd0565b62000e1b868362000dd0565b95508019841693508086168417925050509392505050565b6000819050919050565b600062000e5e62000e5862000e528462000a74565b62000e33565b62000a74565b9050919050565b6000819050919050565b62000e7a8362000e3d565b62000e9262000e898262000e65565b84845462000ddd565b825550505050565b600090565b62000ea962000e9a565b62000eb681848462000e6f565b505050565b5b8181101562000ede5762000ed260008262000e9f565b60018101905062000ebc565b5050565b601f82111562000f2d5762000ef78162000dab565b62000f028462000dc0565b8101602085101562000f12578190505b62000f2a62000f218562000dc0565b83018262000ebb565b50505b505050565b600082821c905092915050565b600062000f526000198460080262000f32565b1980831691505092915050565b600062000f6d838362000f3f565b9150826002028217905092915050565b62000f888262000d3c565b67ffffffffffffffff81111562000fa45762000fa362000814565b5b62000fb0825462000d76565b62000fbd82828562000ee2565b600060209050601f83116001811462000ff5576000841562000fe0578287015190505b62000fec858262000f5f565b8655506200105c565b601f198416620010058662000dab565b60005b828110156200102f5784890151825560018201915060208501945060208101905062001008565b868310156200104f57848901516200104b601f89168262000f3f565b8355505b6001600288020188555050505b505050505050565b7f4e487b7100000000000000000000000000000000000000000000000000000000600052601160045260246000fd5b6000620010a08262000a74565b9150620010ad8362000a74565b9250828201905080821115620010c857620010c762001064565b5b92915050565b7f4e487b7100000000000000000000000000000000000000000000000000000000600052603260045260246000fd5b60006200110a8262000a74565b91507fffffffffffffffffffffffffffffffffffffffffffffffffffffffffffffffff82036200113f576200113e62001064565b5b600182019050919050565b6000819050919050565b6200115f816200114a565b82525050565b620011708162000a74565b82525050565b620011818162000afe565b82525050565b600060a0820190506200119e600083018862001154565b620011ad602083018762001154565b620011bc604083018662001154565b620011cb606083018562001165565b620011da608083018462001176565b9695505050505050565b600081519050919050565b600082825260208201905092915050565b60006200120d82620011e4565b620012198185620011ef565b93506200122b818560208601620008ce565b620012368162000803565b840191505092915050565b600060ff82169050919050565b620012598162001241565b82525050565b600060408201905081810360008301526200127b818562001200565b90506200128c60208301846200124e565b9392505050565b600067ffffffffffffffff821115620012b157620012b062000814565b5b620012bc8262000803565b9050602081019050919050565b6000620012e0620012da8462001293565b62000879565b905082815260208101848484011115620012ff57620012fe620007fe565b5b6200130c848285620008ce565b509392505050565b600082601f8301126200132c576200132b620007f9565b5b81516200133e848260208601620012c9565b91505092915050565b60006020828403121562001360576200135f620007ef565b5b600082015167ffffffffffffffff811115620013815762001380620007f4565b5b6200138f8482850162001314565b91505092915050565b6000620013a58262000d3c565b620013b1818562000cb9565b9350620013c3818560208601620008ce565b620013ce8162000803565b840191505092915050565b60006020820190508181036000830152620013f5818462001398565b905092915050565b6000819050602082019050919050565b60006200141b82516200114a565b80915050919050565b60006200143182620011e4565b826200143d84620013fd565b90506200144a816200140d565b925060208210156200148d57620014887fffffffffffffffffffffffffffffffffffffffffffffffffffffffffffffffff8360200360080262000dd0565b831692505b5050919050565b60805160a05160c05160e051610100516101205161014051612812620014ef6000396000610b2201526000610ae7015260006114fe015260006114dd01526000610ef901526000610f4f01526000610f7801526128126000f3fe608060405234801561001057600080fd5b50600436106100935760003560e01c8063753ec10311610066578063753ec1031461011e57806384b0196e1461013c578063853a1b90146101605780639e6cb42b1461017f578063a3ec138d1461019d57610093565b8063409e2205146100985780634bb278f3146100c85780635ad9fcca146100d25780636a4b134814610102575b600080fd5b6100b260048036038101906100ad9190611a88565b6101cd565b6040516100bf9190611b45565b60405180910390f35b6100d0610279565b005b6100ec60048036038101906100e79190611d48565b61034f565b6040516100f99190611de6565b60405180910390f35b61011c60048036038101906101179190611e60565b610502565b005b61012661068a565b6040516101339190611b45565b60405180910390f35b610144610718565b6040516101579796959493929190612001565b60405180910390f35b6101686107c2565b6040516101769291906120be565b60405180910390f35b610187610827565b60405161019491906120e7565b60405180910390f35b6101b760048036038101906101b2919061212e565b61082d565b6040516101c49190612176565b60405180910390f35b600881815481106101dd57600080fd5b9060005260206000200160009150905080546101f8906121c0565b80601f0160208091040260200160405190810160405280929190818152602001828054610224906121c0565b80156102715780601f1061024657610100808354040283529160200191610271565b820191906000526020600020905b81548152906001019060200180831161025457829003601f168201915b505050505081565b600360006004811061028e5761028d6121f1565b5b0154600e81905550600a6000600481106102ab576102aa6121f1565b5b0154600f819055506000600190505b6008805490508160ff16101561034c5760006102f0600f54600a8460ff16600481106102e9576102e86121f1565b5b015461084d565b905061032b61030a600f54836108c690919063ffffffff16565b60038460ff1660048110610321576103206121f1565b5b0154600e546108da565b600e8190555080600f819055505080806103449061224f565b9150506102ba565b50565b6060813360006103aa7f6bdaeb2d29561f159c7ef98b16b27015fb2aeb87209c7ee656226d912f59927d846000015160405160200161038f929190612278565b60405160208183030381529060405280519060200120610958565b905060006103bc828560200151610972565b90508273ffffffffffffffffffffffffffffffffffffffff168173ffffffffffffffffffffffffffffffffffffffff1614610423576040517f51c65eae00000000000000000000000000000000000000000000000000000000815260040160405180910390fd5b61046b601160003373ffffffffffffffffffffffffffffffffffffffff1673ffffffffffffffffffffffffffffffffffffffff1681526020019081526020016000205461099e565b6104aa576040517f08c379a00000000000000000000000000000000000000000000000000000000081526004016104a1906122ed565b60405180910390fd5b6104f7601160003373ffffffffffffffffffffffffffffffffffffffff1673ffffffffffffffffffffffffffffffffffffffff1681526020019081526020016000205487600001516109ab565b945050505050919050565b60001515601060003373ffffffffffffffffffffffffffffffffffffffff1673ffffffffffffffffffffffffffffffffffffffff16815260200190815260200160002060009054906101000a900460ff16151503610595576040517f08c379a000000000000000000000000000000000000000000000000000000000815260040161058c90612359565b60405180910390fd5b6105dd601160003373ffffffffffffffffffffffffffffffffffffffff1673ffffffffffffffffffffffffffffffffffffffff1681526020019081526020016000205461099e565b1561061d576040517f08c379a0000000000000000000000000000000000000000000000000000000008152600401610614906123c5565b60405180910390fd5b6000610628826109e1565b90506000610635826109f7565b905081601160003373ffffffffffffffffffffffffffffffffffffffff1673ffffffffffffffffffffffffffffffffffffffff168152602001908152602001600020819055506106858282610a2b565b505050565b60078054610697906121c0565b80601f01602080910402602001604051908101604052809291908181526020018280546106c3906121c0565b80156107105780601f106106e557610100808354040283529160200191610710565b820191906000526020600020905b8154815290600101906020018083116106f357829003601f168201915b505050505081565b60006060806000806000606061072c610ade565b610734610b19565b46306000801b600067ffffffffffffffff81111561075557610754611b6c565b5b6040519080825280602002602001820160405280156107835781602001602082028036833780820191505090505b507f0f00000000000000000000000000000000000000000000000000000000000000959493929190965096509650965096509650965090919293949596565b6000804260095410610809576040517f08c379a000000000000000000000000000000000000000000000000000000000815260040161080090612431565b60405180910390fd5b610814600e54610b54565b61081f600f54610c17565b915091509091565b60095481565b60106020528060005260406000206000915054906101000a900460ff1681565b600061085883610cda565b610869576108666000610ce7565b92505b61087282610cda565b610883576108806000610ce7565b91505b6000839050600083905060006108b860018484608073ffffffffffffffffffffffffffffffffffffffff16630b80518e610cfb565b905080935050505092915050565b60006108d28383610d8f565b905092915050565b60006108e584610e08565b6108f6576108f36000610e15565b93505b6108ff8361099e565b6109105761090d6000610e29565b92505b6109198261099e565b61092a576109276000610e29565b91505b60008490506000849050600084905060006109486000858585610e3d565b9050809450505050509392505050565b600061096b610965610ef5565b83610fac565b9050919050565b6000806000806109828686610fed565b9250925092506109928282611049565b82935050505092915050565b6000808214159050919050565b60606109b68361099e565b6109c7576109c46000610e29565b92505b60008390506109d8600082856111ad565b91505092915050565b60006109f08260000151611263565b9050919050565b6000610a24610a1560016004610a0d9190612451565b60ff16610e29565b8361127790919063ffffffff16565b9050919050565b60005b6008805490508160ff161015610ad9576000610a7d83610a6f60038560ff1660048110610a5e57610a5d6121f1565b5b01548761128b90919063ffffffff16565b61129f90919063ffffffff16565b9050610aa9600a8360ff1660048110610a9957610a986121f1565b5b0154610aa4836112b3565b6112c5565b600a8360ff1660048110610ac057610abf6121f1565b5b0181905550508080610ad19061224f565b915050610a2e565b505050565b6060610b1460007f00000000000000000000000000000000000000000000000000000000000000006112d990919063ffffffff16565b905090565b6060610b4f60017f00000000000000000000000000000000000000000000000000000000000000006112d990919063ffffffff16565b905090565b6000610b5f8261099e565b610b7057610b6d6000610e29565b91505b60008290506000610b8082611389565b90506000608073ffffffffffffffffffffffffffffffffffffffff166373cc01546000846040518363ffffffff1660e01b8152600401610bc1929190612486565b602060405180830381865afa158015610bde573d6000803e3d6000fd5b505050506040513d601f19601f82011682018060405250810190610c0291906124cb565b9050610c0d816113e6565b9350505050919050565b6000610c2282610cda565b610c3357610c306000610ce7565b91505b60008290506000610c4382611389565b90506000608073ffffffffffffffffffffffffffffffffffffffff166373cc01546001846040518363ffffffff1660e01b8152600401610c84929190612486565b602060405180830381865afa158015610ca1573d6000803e3d6000fd5b505050506040513d601f19601f82011682018060405250810190610cc591906124cb565b9050610cd0816113f0565b9350505050919050565b6000808214159050919050565b6000610cf48260016113fa565b9050919050565b60006060838388610d0b89611389565b610d1489611389565b6040518463ffffffff1660e01b8152600401610d32939291906124f8565b600060405180830381865afa158015610d4f573d6000803e3d6000fd5b505050506040513d6000823e3d601f19601f82011682018060405250810190610d7891906125ad565b9050610d838161149c565b91505095945050505050565b6000610d9a83610cda565b610dab57610da86000610ce7565b92505b610db482610cda565b610dc557610dc26000610ce7565b91505b600083905060008390506000610dfa60018484608073ffffffffffffffffffffffffffffffffffffffff1663874b1c10610cfb565b905080935050505092915050565b6000808214159050919050565b6000610e228260006113fa565b9050919050565b6000610e368260006113fa565b9050919050565b60006060608073ffffffffffffffffffffffffffffffffffffffff1663c2d9695287610e6888611389565b610e7188611389565b610e7a88611389565b6040518563ffffffff1660e01b8152600401610e9994939291906125f6565b600060405180830381865afa158015610eb6573d6000803e3d6000fd5b505050506040513d6000823e3d601f19601f82011682018060405250810190610edf91906125ad565b9050610eea816114aa565b915050949350505050565b60007f000000000000000000000000000000000000000000000000000000000000000073ffffffffffffffffffffffffffffffffffffffff163073ffffffffffffffffffffffffffffffffffffffff16148015610f7157507f000000000000000000000000000000000000000000000000000000000000000046145b15610f9e577f00000000000000000000000000000000000000000000000000000000000000009050610fa9565b610fa66114b8565b90505b90565b60006040517f190100000000000000000000000000000000000000000000000000000000000081528360028201528260228201526042812091505092915050565b600080600060418451036110325760008060006020870151925060408701519150606087015160001a90506110248882858561154e565b955095509550505050611042565b60006002855160001b9250925092505b9250925092565b6000600381111561105d5761105c612650565b5b8260038111156110705761106f612650565b5b03156111a9576001600381111561108a57611089612650565b5b82600381111561109d5761109c612650565b5b036110d4576040517ff645eedf00000000000000000000000000000000000000000000000000000000815260040160405180910390fd5b600260038111156110e8576110e7612650565b5b8260038111156110fb576110fa612650565b5b03611140578060001c6040517ffce698f700000000000000000000000000000000000000000000000000000000815260040161113791906120e7565b60405180910390fd5b60038081111561115357611152612650565b5b82600381111561116657611165612650565b5b036111a857806040517fd78bce0c00000000000000000000000000000000000000000000000000000000815260040161119f919061267f565b60405180910390fd5b5b5050565b6060608073ffffffffffffffffffffffffffffffffffffffff1663a1848ff3856111d686611389565b856040516020016111e791906126bb565b6040516020818303038152906040526040518463ffffffff1660e01b8152600401611214939291906124f8565b600060405180830381865afa158015611231573d6000803e3d6000fd5b505050506040513d6000823e3d601f19601f8201168201806040525081019061125a91906125ad565b90509392505050565b6000611270826000611642565b9050919050565b600061128383836116dc565b905092915050565b60006112978383611755565b905092915050565b60006112ab83836117ce565b905092915050565b60006112be82611847565b9050919050565b60006112d1838361185d565b905092915050565b606060ff60001b83146112f6576112ef836118d5565b9050611383565b818054611302906121c0565b80601f016020809104026020016040519081016040528092919081815260200182805461132e906121c0565b801561137b5780601f106113505761010080835404028352916020019161137b565b820191906000526020600020905b81548152906001019060200180831161135e57829003601f168201915b505050505090505b92915050565b6060602067ffffffffffffffff8111156113a6576113a5611b6c565b5b6040519080825280601f01601f1916602001820160405280156113d85781602001600182028036833780820191505090505b509050816020820152919050565b6000819050919050565b6000819050919050565b60006060608073ffffffffffffffffffffffffffffffffffffffff166319e1c5c461142486611389565b856040518363ffffffff1660e01b81526004016114429291906126d6565b600060405180830381865afa15801561145f573d6000803e3d6000fd5b505050506040513d6000823e3d601f19601f8201168201806040525081019061148891906125ad565b9050611493816114aa565b91505092915050565b600060208201519050919050565b600060208201519050919050565b60007f8b73c3c69bb8fe3d512ecc4cf759cc79239f7b179b0ffacaa9a75d522b39400f7f00000000000000000000000000000000000000000000000000000000000000007f00000000000000000000000000000000000000000000000000000000000000004630604051602001611533959493929190612706565b60405160208183030381529060405280519060200120905090565b60008060007f7fffffffffffffffffffffffffffffff5d576e7357a4501ddfe92f46681b20a08460001c111561158e576000600385925092509250611638565b6000600188888888604051600081526020016040526040516115b39493929190612759565b6020604051602081039080840390855afa1580156115d5573d6000803e3d6000fd5b505050602060405103519050600073ffffffffffffffffffffffffffffffffffffffff168173ffffffffffffffffffffffffffffffffffffffff160361162957600060016000801b93509350935050611638565b8060008060001b935093509350505b9450945094915050565b60006060608073ffffffffffffffffffffffffffffffffffffffff16635fa55ca784866040518363ffffffff1660e01b8152600401611682929190612486565b600060405180830381865afa15801561169f573d6000803e3d6000fd5b505050506040513d6000823e3d601f19601f820116820180604052508101906116c891906125ad565b90506116d3816114aa565b91505092915050565b60006116e78361099e565b6116f8576116f56000610e29565b92505b6117018261099e565b6117125761170f6000610e29565b91505b60008390506000839050600061174760008484608073ffffffffffffffffffffffffffffffffffffffff1663eb274b77610cfb565b905080935050505092915050565b60006117608361099e565b6117715761176e6000610e29565b92505b61177a8261099e565b61178b576117886000610e29565b91505b6000839050600083905060006117c060008484608073ffffffffffffffffffffffffffffffffffffffff166392348b34610cfb565b905080935050505092915050565b60006117d983610e08565b6117ea576117e76000610e15565b92505b6117f382610e08565b611804576118016000610e15565b91505b60008390506000839050600061183960008484608073ffffffffffffffffffffffffffffffffffffffff1663ae104cfd610cfb565b905080935050505092915050565b60006118566000836001611949565b9050919050565b600061186883610cda565b611879576118766000610ce7565b92505b61188282610cda565b611893576118906000610ce7565b91505b6000839050600083905060006118c760018484608073ffffffffffffffffffffffffffffffffffffffff16622df619610cfb565b905080935050505092915050565b606060006118e2836119ee565b90506000602067ffffffffffffffff81111561190157611900611b6c565b5b6040519080825280601f01601f1916602001820160405280156119335781602001600182028036833780820191505090505b5090508181528360208201528092505050919050565b60006060608073ffffffffffffffffffffffffffffffffffffffff16634a5a11178661197487611389565b866040518463ffffffff1660e01b81526004016119939392919061279e565b600060405180830381865afa1580156119b0573d6000803e3d6000fd5b505050506040513d6000823e3d601f19601f820116820180604052508101906119d991906125ad565b90506119e4816114aa565b9150509392505050565b60008060ff8360001c169050601f811115611a35576040517fb3512b0c00000000000000000000000000000000000000000000000000000000815260040160405180910390fd5b80915050919050565b6000604051905090565b600080fd5b600080fd5b6000819050919050565b611a6581611a52565b8114611a7057600080fd5b50565b600081359050611a8281611a5c565b92915050565b600060208284031215611a9e57611a9d611a48565b5b6000611aac84828501611a73565b91505092915050565b600081519050919050565b600082825260208201905092915050565b60005b83811015611aef578082015181840152602081019050611ad4565b60008484015250505050565b6000601f19601f8301169050919050565b6000611b1782611ab5565b611b218185611ac0565b9350611b31818560208601611ad1565b611b3a81611afb565b840191505092915050565b60006020820190508181036000830152611b5f8184611b0c565b905092915050565b600080fd5b7f4e487b7100000000000000000000000000000000000000000000000000000000600052604160045260246000fd5b611ba482611afb565b810181811067ffffffffffffffff82111715611bc357611bc2611b6c565b5b80604052505050565b6000611bd6611a3e565b9050611be28282611b9b565b919050565b600080fd5b6000819050919050565b611bff81611bec565b8114611c0a57600080fd5b50565b600081359050611c1c81611bf6565b92915050565b600080fd5b600080fd5b600067ffffffffffffffff821115611c4757611c46611b6c565b5b611c5082611afb565b9050602081019050919050565b82818337600083830152505050565b6000611c7f611c7a84611c2c565b611bcc565b905082815260208101848484011115611c9b57611c9a611c27565b5b611ca6848285611c5d565b509392505050565b600082601f830112611cc357611cc2611c22565b5b8135611cd3848260208601611c6c565b91505092915050565b600060408284031215611cf257611cf1611b67565b5b611cfc6040611bcc565b90506000611d0c84828501611c0d565b600083015250602082013567ffffffffffffffff811115611d3057611d2f611be7565b5b611d3c84828501611cae565b60208301525092915050565b600060208284031215611d5e57611d5d611a48565b5b600082013567ffffffffffffffff811115611d7c57611d7b611a4d565b5b611d8884828501611cdc565b91505092915050565b600081519050919050565b600082825260208201905092915050565b6000611db882611d91565b611dc28185611d9c565b9350611dd2818560208601611ad1565b611ddb81611afb565b840191505092915050565b60006020820190508181036000830152611e008184611dad565b905092915050565b600060208284031215611e1e57611e1d611b67565b5b611e286020611bcc565b9050600082013567ffffffffffffffff811115611e4857611e47611be7565b5b611e5484828501611cae565b60008301525092915050565b600060208284031215611e7657611e75611a48565b5b600082013567ffffffffffffffff811115611e9457611e93611a4d565b5b611ea084828501611e08565b91505092915050565b60007fff0000000000000000000000000000000000000000000000000000000000000082169050919050565b611ede81611ea9565b82525050565b611eed81611a52565b82525050565b600073ffffffffffffffffffffffffffffffffffffffff82169050919050565b6000611f1e82611ef3565b9050919050565b611f2e81611f13565b82525050565b611f3d81611bec565b82525050565b600081519050919050565b600082825260208201905092915050565b6000819050602082019050919050565b611f7881611a52565b82525050565b6000611f8a8383611f6f565b60208301905092915050565b6000602082019050919050565b6000611fae82611f43565b611fb88185611f4e565b9350611fc383611f5f565b8060005b83811015611ff4578151611fdb8882611f7e565b9750611fe683611f96565b925050600181019050611fc7565b5085935050505092915050565b600060e082019050612016600083018a611ed5565b81810360208301526120288189611b0c565b9050818103604083015261203c8188611b0c565b905061204b6060830187611ee4565b6120586080830186611f25565b61206560a0830185611f34565b81810360c08301526120778184611fa3565b905098975050505050505050565b600060ff82169050919050565b61209b81612085565b82525050565b600061ffff82169050919050565b6120b8816120a1565b82525050565b60006040820190506120d36000830185612092565b6120e060208301846120af565b9392505050565b60006020820190506120fc6000830184611ee4565b92915050565b61210b81611f13565b811461211657600080fd5b50565b60008135905061212881612102565b92915050565b60006020828403121561214457612143611a48565b5b600061215284828501612119565b91505092915050565b60008115159050919050565b6121708161215b565b82525050565b600060208201905061218b6000830184612167565b92915050565b7f4e487b7100000000000000000000000000000000000000000000000000000000600052602260045260246000fd5b600060028204905060018216806121d857607f821691505b6020821081036121eb576121ea612191565b5b50919050565b7f4e487b7100000000000000000000000000000000000000000000000000000000600052603260045260246000fd5b7f4e487b7100000000000000000000000000000000000000000000000000000000600052601160045260246000fd5b600061225a82612085565b915060ff820361226d5761226c612220565b5b600182019050919050565b600060408201905061228d6000830185611f34565b61229a6020830184611f34565b9392505050565b7f6e6f20766f746520666f756e6421000000000000000000000000000000000000600082015250565b60006122d7600e83611ac0565b91506122e2826122a1565b602082019050919050565b60006020820190508181036000830152612306816122ca565b9050919050565b7f596f7520617265206e6f7420616c6c6f77656420746f20766f74652100000000600082015250565b6000612343601c83611ac0565b915061234e8261230d565b602082019050919050565b6000602082019050818103600083015261237281612336565b9050919050565b7f616c726561647920766f74656421000000000000000000000000000000000000600082015250565b60006123af600e83611ac0565b91506123ba82612379565b602082019050919050565b600060208201905081810360008301526123de816123a2565b9050919050565b7f766f74696e67206973207374696c6c20696e2070726f67726573732100000000600082015250565b600061241b601c83611ac0565b9150612426826123e5565b602082019050919050565b6000602082019050818103600083015261244a8161240e565b9050919050565b600061245c82612085565b915061246783612085565b9250828203905060ff8111156124805761247f612220565b5b92915050565b600060408201905061249b6000830185612092565b81810360208301526124ad8184611dad565b90509392505050565b6000815190506124c581611a5c565b92915050565b6000602082840312156124e1576124e0611a48565b5b60006124ef848285016124b6565b91505092915050565b600060608201905061250d6000830186612092565b818103602083015261251f8185611dad565b905081810360408301526125338184611dad565b9050949350505050565b600061255061254b84611c2c565b611bcc565b90508281526020810184848401111561256c5761256b611c27565b5b612577848285611ad1565b509392505050565b600082601f83011261259457612593611c22565b5b81516125a484826020860161253d565b91505092915050565b6000602082840312156125c3576125c2611a48565b5b600082015167ffffffffffffffff8111156125e1576125e0611a4d565b5b6125ed8482850161257f565b91505092915050565b600060808201905061260b6000830187612092565b818103602083015261261d8186611dad565b905081810360408301526126318185611dad565b905081810360608301526126458184611dad565b905095945050505050565b7f4e487b7100000000000000000000000000000000000000000000000000000000600052602160045260246000fd5b60006020820190506126946000830184611f34565b92915050565b6000819050919050565b6126b56126b082611bec565b61269a565b82525050565b60006126c782846126a4565b60208201915081905092915050565b600060408201905081810360008301526126f08185611dad565b90506126ff6020830184612092565b9392505050565b600060a08201905061271b6000830188611f34565b6127286020830187611f34565b6127356040830186611f34565b6127426060830185611ee4565b61274f6080830184611f25565b9695505050505050565b600060808201905061276e6000830187611f34565b61277b6020830186612092565b6127886040830185611f34565b6127956060830184611f34565b95945050505050565b60006060820190506127b36000830186612092565b81810360208301526127c58185611dad565b90506127d46040830184612092565b94935050505056fea2646970667358221220811fae7579f79034434e30b4bc4a1f4bbbb4c4f43c50e4ccaa3977131036506d64736f6c63430008140033",
  "linkReferences": {},
  "deployedLinkReferences": {}
}