{
  "_format": "hh-sol-artifact-1",
  "contractName": "Voting",
  "sourceName": "contracts/Voting.sol",
  "abi": [
    {
      "inputs": [
        {
          "internalType": "string",
          "name": "_proposal",
          "type": "string"
        },
        {
          "internalType": "string[]",
          "name": "_options",
          "type": "string[]"
        },
        {
          "internalType": "uint256",
          "name": "votingPeriod",
          "type": "uint256"
        },
        {
          "internalType": "address[]",
          "name": "_voters",
          "type": "address[]"
        }
      ],
      "stateMutability": "nonpayable",
      "type": "constructor"
    },
    {
      "inputs": [],
      "name": "ECDSAInvalidSignature",
      "type": "error"
    },
    {
      "inputs": [
        {
          "internalType": "uint256",
          "name": "length",
          "type": "uint256"
        }
      ],
      "name": "ECDSAInvalidSignatureLength",
      "type": "error"
    },
    {
      "inputs": [
        {
          "internalType": "bytes32",
          "name": "s",
          "type": "bytes32"
        }
      ],
      "name": "ECDSAInvalidSignatureS",
      "type": "error"
    },
    {
      "inputs": [],
      "name": "InvalidShortString",
      "type": "error"
    },
    {
      "inputs": [],
      "name": "SignerNotMessageSender",
      "type": "error"
    },
    {
      "inputs": [],
      "name": "SignerNotOwner",
      "type": "error"
    },
    {
      "inputs": [
        {
          "internalType": "string",
          "name": "str",
          "type": "string"
        }
      ],
      "name": "StringTooLong",
      "type": "error"
    },
    {
      "anonymous": false,
      "inputs": [],
      "name": "EIP712DomainChanged",
      "type": "event"
    },
    {
      "inputs": [],
      "name": "eip712Domain",
      "outputs": [
        {
          "internalType": "bytes1",
          "name": "fields",
          "type": "bytes1"
        },
        {
          "internalType": "string",
          "name": "name",
          "type": "string"
        },
        {
          "internalType": "string",
          "name": "version",
          "type": "string"
        },
        {
          "internalType": "uint256",
          "name": "chainId",
          "type": "uint256"
        },
        {
          "internalType": "address",
          "name": "verifyingContract",
          "type": "address"
        },
        {
          "internalType": "bytes32",
          "name": "salt",
          "type": "bytes32"
        },
        {
          "internalType": "uint256[]",
          "name": "extensions",
          "type": "uint256[]"
        }
      ],
      "stateMutability": "view",
      "type": "function"
    },
    {
      "inputs": [],
      "name": "finalize",
      "outputs": [],
      "stateMutability": "nonpayable",
      "type": "function"
    },
    {
      "inputs": [],
      "name": "finalized",
      "outputs": [
        {
          "internalType": "bool",
          "name": "",
          "type": "bool"
        }
      ],
      "stateMutability": "view",
      "type": "function"
    },
    {
      "inputs": [
        {
          "components": [
            {
              "internalType": "bytes32",
              "name": "publicKey",
              "type": "bytes32"
            },
            {
              "internalType": "bytes",
              "name": "signature",
              "type": "bytes"
            }
          ],
          "internalType": "struct Permission",
          "name": "signature",
          "type": "tuple"
        }
      ],
      "name": "getUserVote",
      "outputs": [
        {
          "internalType": "bytes",
          "name": "",
          "type": "bytes"
        }
      ],
      "stateMutability": "view",
      "type": "function"
    },
    {
      "inputs": [
        {
          "internalType": "uint256",
          "name": "",
          "type": "uint256"
        }
      ],
      "name": "options",
      "outputs": [
        {
          "internalType": "string",
          "name": "",
          "type": "string"
        }
      ],
      "stateMutability": "view",
      "type": "function"
    },
    {
      "inputs": [],
      "name": "proposal",
      "outputs": [
        {
          "internalType": "string",
          "name": "",
          "type": "string"
        }
      ],
      "stateMutability": "view",
      "type": "function"
    },
    {
      "inputs": [
        {
          "components": [
            {
              "internalType": "bytes",
              "name": "data",
              "type": "bytes"
            }
          ],
          "internalType": "struct inEuint8",
          "name": "voteBytes",
          "type": "tuple"
        }
      ],
      "name": "vote",
      "outputs": [],
      "stateMutability": "nonpayable",
      "type": "function"
    },
    {
      "inputs": [],
      "name": "voteEndTime",
      "outputs": [
        {
          "internalType": "uint256",
          "name": "",
          "type": "uint256"
        }
      ],
      "stateMutability": "view",
      "type": "function"
    },
    {
      "inputs": [
        {
          "internalType": "address",
          "name": "",
          "type": "address"
        }
      ],
      "name": "voters",
      "outputs": [
        {
          "internalType": "bool",
          "name": "",
          "type": "bool"
        }
      ],
      "stateMutability": "view",
      "type": "function"
    },
    {
      "inputs": [],
      "name": "winning",
      "outputs": [
        {
          "internalType": "uint8",
          "name": "",
          "type": "uint8"
        },
        {
          "internalType": "uint16",
          "name": "",
          "type": "uint16"
        }
      ],
      "stateMutability": "view",
      "type": "function"
    }
  ],
  "bytecode": "0x6101606040526200001760106200038a60201b60201c565b6002556040518060800160405280620000376000620003a660201b60201c565b81526020016200004e6001620003a660201b60201c565b8152602001620000656002620003a660201b60201c565b81526020016200007c6003620003a660201b60201c565b81525060039060046200009192919062000630565b506040518060800160405280620000af6000620003c260201b60201c565b8152602001620000c66000620003c260201b60201c565b8152602001620000dd6000620003c260201b60201c565b8152602001620000f46000620003c260201b60201c565b815250600a9060046200010992919062000675565b503480156200011757600080fd5b5060405162003fd638038062003fd683398181016040528101906200013d919062000bea565b6040518060400160405280601181526020017f4668656e6978205065726d697373696f6e0000000000000000000000000000008152506040518060400160405280600381526020017f312e300000000000000000000000000000000000000000000000000000000000815250620001bf600083620003de60201b90919060201c565b6101208181525050620001dd600182620003de60201b90919060201c565b6101408181525050818051906020012060e08181525050808051906020012061010081815250504660a081815250506200021c6200043660201b60201c565b608081815250503073ffffffffffffffffffffffffffffffffffffffff1660c08173ffffffffffffffffffffffffffffffffffffffff16815250505050600460ff166008805490501115620002a8576040517f08c379a00000000000000000000000000000000000000000000000000000000081526004016200029f9062000d1a565b60405180910390fd5b8360079081620002b9919062000f7d565b508260089080519060200190620002d2929190620006ba565b508142620002e1919062001093565b60098190555060005b81518110156200037f5760016010600084848151811062000310576200030f620010ce565b5b602002602001015173ffffffffffffffffffffffffffffffffffffffff1673ffffffffffffffffffffffffffffffffffffffff16815260200190815260200160002060006101000a81548160ff02191690831515021790555080806200037690620010fd565b915050620002ea565b505050505062001494565b60006200039f8260026200049360201b60201c565b9050919050565b6000620003bb8260006200049360201b60201c565b9050919050565b6000620003d78260016200049360201b60201c565b9050919050565b60006020835110156200040457620003fc836200054a60201b60201c565b905062000430565b826200041683620005b760201b60201c565b600001908162000427919062000f7d565b5060ff60001b90505b92915050565b60007f8b73c3c69bb8fe3d512ecc4cf759cc79239f7b179b0ffacaa9a75d522b39400f60e0516101005146306040516020016200047895949392919062001187565b60405160208183030381529060405280519060200120905090565b60006060608073ffffffffffffffffffffffffffffffffffffffff166319e1c5c4620004c586620005c160201b60201c565b856040518363ffffffff1660e01b8152600401620004e59291906200125f565b600060405180830381865afa15801562000503573d6000803e3d6000fd5b505050506040513d6000823e3d601f19601f820116820180604052508101906200052e919062001347565b905062000541816200062260201b60201c565b91505092915050565b600080829050601f815111156200059a57826040517f305a27a9000000000000000000000000000000000000000000000000000000008152600401620005919190620013d9565b60405180910390fd5b805181620005a89062001424565b60001c1760001b915050919050565b6000819050919050565b6060602067ffffffffffffffff811115620005e157620005e062000814565b5b6040519080825280601f01601f191660200182016040528015620006145781602001600182028036833780820191505090505b509050816020820152919050565b600060208201519050919050565b826004810192821562000662579160200282015b828111156200066157825182559160200191906001019062000644565b5b5090506200067191906200071a565b5090565b8260048101928215620006a7579160200282015b82811115620006a657825182559160200191906001019062000689565b5b509050620006b6919062000739565b5090565b82805482825590600052602060002090810192821562000707579160200282015b8281111562000706578251829081620006f5919062000f7d565b5091602001919060010190620006db565b5b50905062000716919062000758565b5090565b5b80821115620007355760008160009055506001016200071b565b5090565b5b80821115620007545760008160009055506001016200073a565b5090565b5b808211156200077c576000818162000772919062000780565b5060010162000759565b5090565b5080546200078e9062000d76565b6000825580601f10620007a25750620007c3565b601f016020900490600052602060002090810190620007c29190620007c6565b5b50565b5b80821115620007e1576000816000905550600101620007c7565b5090565b6000604051905090565b600080fd5b600080fd5b600080fd5b600080fd5b6000601f19601f8301169050919050565b7f4e487b7100000000000000000000000000000000000000000000000000000000600052604160045260246000fd5b6200084e8262000803565b810181811067ffffffffffffffff8211171562000870576200086f62000814565b5b80604052505050565b600062000885620007e5565b905062000893828262000843565b919050565b600067ffffffffffffffff821115620008b657620008b562000814565b5b620008c18262000803565b9050602081019050919050565b60005b83811015620008ee578082015181840152602081019050620008d1565b60008484015250505050565b6000620009116200090b8462000898565b62000879565b90508281526020810184848401111562000930576200092f620007fe565b5b6200093d848285620008ce565b509392505050565b600082601f8301126200095d576200095c620007f9565b5b81516200096f848260208601620008fa565b91505092915050565b600067ffffffffffffffff82111562000996576200099562000814565b5b602082029050602081019050919050565b600080fd5b6000620009c3620009bd8462000978565b62000879565b90508083825260208201905060208402830185811115620009e957620009e8620009a7565b5b835b8181101562000a3757805167ffffffffffffffff81111562000a125762000a11620007f9565b5b80860162000a21898262000945565b85526020850194505050602081019050620009eb565b5050509392505050565b600082601f83011262000a595762000a58620007f9565b5b815162000a6b848260208601620009ac565b91505092915050565b6000819050919050565b62000a898162000a74565b811462000a9557600080fd5b50565b60008151905062000aa98162000a7e565b92915050565b600067ffffffffffffffff82111562000acd5762000acc62000814565b5b602082029050602081019050919050565b600073ffffffffffffffffffffffffffffffffffffffff82169050919050565b600062000b0b8262000ade565b9050919050565b62000b1d8162000afe565b811462000b2957600080fd5b50565b60008151905062000b3d8162000b12565b92915050565b600062000b5a62000b548462000aaf565b62000879565b9050808382526020820190506020840283018581111562000b805762000b7f620009a7565b5b835b8181101562000bad578062000b98888262000b2c565b84526020840193505060208101905062000b82565b5050509392505050565b600082601f83011262000bcf5762000bce620007f9565b5b815162000be184826020860162000b43565b91505092915050565b6000806000806080858703121562000c075762000c06620007ef565b5b600085015167ffffffffffffffff81111562000c285762000c27620007f4565b5b62000c368782880162000945565b945050602085015167ffffffffffffffff81111562000c5a5762000c59620007f4565b5b62000c688782880162000a41565b935050604062000c7b8782880162000a98565b925050606085015167ffffffffffffffff81111562000c9f5762000c9e620007f4565b5b62000cad8782880162000bb7565b91505092959194509250565b600082825260208201905092915050565b7f746f6f206d616e79206f7074696f6e7321000000000000000000000000000000600082015250565b600062000d0260118362000cb9565b915062000d0f8262000cca565b602082019050919050565b6000602082019050818103600083015262000d358162000cf3565b9050919050565b600081519050919050565b7f4e487b7100000000000000000000000000000000000000000000000000000000600052602260045260246000fd5b6000600282049050600182168062000d8f57607f821691505b60208210810362000da55762000da462000d47565b5b50919050565b60008190508160005260206000209050919050565b60006020601f8301049050919050565b600082821b905092915050565b60006008830262000e0f7fffffffffffffffffffffffffffffffffffffffffffffffffffffffffffffffff8262000dd0565b62000e1b868362000dd0565b95508019841693508086168417925050509392505050565b6000819050919050565b600062000e5e62000e5862000e528462000a74565b62000e33565b62000a74565b9050919050565b6000819050919050565b62000e7a8362000e3d565b62000e9262000e898262000e65565b84845462000ddd565b825550505050565b600090565b62000ea962000e9a565b62000eb681848462000e6f565b505050565b5b8181101562000ede5762000ed260008262000e9f565b60018101905062000ebc565b5050565b601f82111562000f2d5762000ef78162000dab565b62000f028462000dc0565b8101602085101562000f12578190505b62000f2a62000f218562000dc0565b83018262000ebb565b50505b505050565b600082821c905092915050565b600062000f526000198460080262000f32565b1980831691505092915050565b600062000f6d838362000f3f565b9150826002028217905092915050565b62000f888262000d3c565b67ffffffffffffffff81111562000fa45762000fa362000814565b5b62000fb0825462000d76565b62000fbd82828562000ee2565b600060209050601f83116001811462000ff5576000841562000fe0578287015190505b62000fec858262000f5f565b8655506200105c565b601f198416620010058662000dab565b60005b828110156200102f5784890151825560018201915060208501945060208101905062001008565b868310156200104f57848901516200104b601f89168262000f3f565b8355505b6001600288020188555050505b505050505050565b7f4e487b7100000000000000000000000000000000000000000000000000000000600052601160045260246000fd5b6000620010a08262000a74565b9150620010ad8362000a74565b9250828201905080821115620010c857620010c762001064565b5b92915050565b7f4e487b7100000000000000000000000000000000000000000000000000000000600052603260045260246000fd5b60006200110a8262000a74565b91507fffffffffffffffffffffffffffffffffffffffffffffffffffffffffffffffff82036200113f576200113e62001064565b5b600182019050919050565b6000819050919050565b6200115f816200114a565b82525050565b620011708162000a74565b82525050565b620011818162000afe565b82525050565b600060a0820190506200119e600083018862001154565b620011ad602083018762001154565b620011bc604083018662001154565b620011cb606083018562001165565b620011da608083018462001176565b9695505050505050565b600081519050919050565b600082825260208201905092915050565b60006200120d82620011e4565b620012198185620011ef565b93506200122b818560208601620008ce565b620012368162000803565b840191505092915050565b600060ff82169050919050565b620012598162001241565b82525050565b600060408201905081810360008301526200127b818562001200565b90506200128c60208301846200124e565b9392505050565b600067ffffffffffffffff821115620012b157620012b062000814565b5b620012bc8262000803565b9050602081019050919050565b6000620012e0620012da8462001293565b62000879565b905082815260208101848484011115620012ff57620012fe620007fe565b5b6200130c848285620008ce565b509392505050565b600082601f8301126200132c576200132b620007f9565b5b81516200133e848260208601620012c9565b91505092915050565b60006020828403121562001360576200135f620007ef565b5b600082015167ffffffffffffffff811115620013815762001380620007f4565b5b6200138f8482850162001314565b91505092915050565b6000620013a58262000d3c565b620013b1818562000cb9565b9350620013c3818560208601620008ce565b620013ce8162000803565b840191505092915050565b60006020820190508181036000830152620013f5818462001398565b905092915050565b6000819050602082019050919050565b60006200141b82516200114a565b80915050919050565b60006200143182620011e4565b826200143d84620013fd565b90506200144a816200140d565b925060208210156200148d57620014887fffffffffffffffffffffffffffffffffffffffffffffffffffffffffffffffff8360200360080262000dd0565b831692505b5050919050565b60805160a05160c05160e051610100516101205161014051612ae7620014ef6000396000610cb301526000610c780152600061168f0152600061166e0152600061108a015260006110e0015260006111090152612ae76000f3fe608060405234801561001057600080fd5b506004361061009e5760003560e01c806384b0196e1161006657806384b0196e14610147578063853a1b901461016b5780639e6cb42b1461018a578063a3ec138d146101a8578063b3f05b97146101d85761009e565b8063409e2205146100a35780634bb278f3146100d35780635ad9fcca146100dd5780636a4b13481461010d578063753ec10314610129575b600080fd5b6100bd60048036038101906100b89190611c19565b6101f6565b6040516100ca9190611cd6565b60405180910390f35b6100db6102a2565b005b6100f760048036038101906100f29190611ed9565b610427565b6040516101049190611f77565b60405180910390f35b61012760048036038101906101229190611ff1565b6105da565b005b6101316107b9565b60405161013e9190611cd6565b60405180910390f35b61014f610847565b6040516101629796959493929190612192565b60405180910390f35b6101736108f1565b60405161018192919061224f565b60405180910390f35b6101926109a5565b60405161019f9190612278565b60405180910390f35b6101c260048036038101906101bd91906122bf565b6109ab565b6040516101cf9190612307565b60405180910390f35b6101e06109cb565b6040516101ed9190612307565b60405180910390f35b6008818154811061020657600080fd5b90600052602060002001600091509050805461022190612351565b80601f016020809104026020016040519081016040528092919081815260200182805461024d90612351565b801561029a5780601f1061026f5761010080835404028352916020019161029a565b820191906000526020600020905b81548152906001019060200180831161027d57829003601f168201915b505050505081565b42600954106102e6576040517f08c379a00000000000000000000000000000000000000000000000000000000081526004016102dd906123ce565b60405180910390fd5b601260009054906101000a900460ff1615610336576040517f08c379a000000000000000000000000000000000000000000000000000000000815260040161032d9061243a565b60405180910390fd5b6001601260006101000a81548160ff02191690831515021790555060036000600481106103665761036561245a565b5b0154600e81905550600a6000600481106103835761038261245a565b5b0154600f819055506000600190505b6008805490508160ff1610156104245760006103c8600f54600a8460ff16600481106103c1576103c061245a565b5b01546109de565b90506104036103e2600f5483610a5790919063ffffffff16565b60038460ff16600481106103f9576103f861245a565b5b0154600e54610a6b565b600e8190555080600f8190555050808061041c906124b8565b915050610392565b50565b6060813360006104827f6bdaeb2d29561f159c7ef98b16b27015fb2aeb87209c7ee656226d912f59927d84600001516040516020016104679291906124e1565b60405160208183030381529060405280519060200120610ae9565b90506000610494828560200151610b03565b90508273ffffffffffffffffffffffffffffffffffffffff168173ffffffffffffffffffffffffffffffffffffffff16146104fb576040517f51c65eae00000000000000000000000000000000000000000000000000000000815260040160405180910390fd5b610543601160003373ffffffffffffffffffffffffffffffffffffffff1673ffffffffffffffffffffffffffffffffffffffff16815260200190815260200160002054610b2f565b610582576040517f08c379a000000000000000000000000000000000000000000000000000000000815260040161057990612556565b60405180910390fd5b6105cf601160003373ffffffffffffffffffffffffffffffffffffffff1673ffffffffffffffffffffffffffffffffffffffff168152602001908152602001600020548760000151610b3c565b945050505050919050565b601060003373ffffffffffffffffffffffffffffffffffffffff1673ffffffffffffffffffffffffffffffffffffffff16815260200190815260200160002060009054906101000a900460ff1661063057600080fd5b6009544210610674576040517f08c379a000000000000000000000000000000000000000000000000000000000815260040161066b906125c2565b60405180910390fd5b6106bc601160003373ffffffffffffffffffffffffffffffffffffffff1673ffffffffffffffffffffffffffffffffffffffff16815260200190815260200160002054610b2f565b156106fc576040517f08c379a00000000000000000000000000000000000000000000000000000000081526004016106f39061262e565b60405180910390fd5b601260009054906101000a900460ff161561074c576040517f08c379a00000000000000000000000000000000000000000000000000000000081526004016107439061269a565b60405180910390fd5b600061075782610b72565b9050600061076482610b88565b905081601160003373ffffffffffffffffffffffffffffffffffffffff1673ffffffffffffffffffffffffffffffffffffffff168152602001908152602001600020819055506107b48282610bbc565b505050565b600780546107c690612351565b80601f01602080910402602001604051908101604052809291908181526020018280546107f290612351565b801561083f5780601f106108145761010080835404028352916020019161083f565b820191906000526020600020905b81548152906001019060200180831161082257829003601f168201915b505050505081565b60006060806000806000606061085b610c6f565b610863610caa565b46306000801b600067ffffffffffffffff81111561088457610883611cfd565b5b6040519080825280602002602001820160405280156108b25781602001602082028036833780820191505090505b507f0f00000000000000000000000000000000000000000000000000000000000000959493929190965096509650965096509650965090919293949596565b6000804260095410610938576040517f08c379a000000000000000000000000000000000000000000000000000000000815260040161092f906123ce565b60405180910390fd5b601260009054906101000a900460ff16610987576040517f08c379a000000000000000000000000000000000000000000000000000000000815260040161097e90612706565b60405180910390fd5b610992600e54610ce5565b61099d600f54610da8565b915091509091565b60095481565b60106020528060005260406000206000915054906101000a900460ff1681565b601260009054906101000a900460ff1681565b60006109e983610e6b565b6109fa576109f76000610e78565b92505b610a0382610e6b565b610a1457610a116000610e78565b91505b600083905060008390506000610a4960018484608073ffffffffffffffffffffffffffffffffffffffff16630b80518e610e8c565b905080935050505092915050565b6000610a638383610f20565b905092915050565b6000610a7684610f99565b610a8757610a846000610fa6565b93505b610a9083610b2f565b610aa157610a9e6000610fba565b92505b610aaa82610b2f565b610abb57610ab86000610fba565b91505b6000849050600084905060008490506000610ad96000858585610fce565b9050809450505050509392505050565b6000610afc610af6611086565b8361113d565b9050919050565b600080600080610b13868661117e565b925092509250610b2382826111da565b82935050505092915050565b6000808214159050919050565b6060610b4783610b2f565b610b5857610b556000610fba565b92505b6000839050610b696000828561133e565b91505092915050565b6000610b8182600001516113f4565b9050919050565b6000610bb5610ba660016004610b9e9190612726565b60ff16610fba565b8361140890919063ffffffff16565b9050919050565b60005b6008805490508160ff161015610c6a576000610c0e83610c0060038560ff1660048110610bef57610bee61245a565b5b01548761141c90919063ffffffff16565b61143090919063ffffffff16565b9050610c3a600a8360ff1660048110610c2a57610c2961245a565b5b0154610c3583611444565b611456565b600a8360ff1660048110610c5157610c5061245a565b5b0181905550508080610c62906124b8565b915050610bbf565b505050565b6060610ca560007f000000000000000000000000000000000000000000000000000000000000000061146a90919063ffffffff16565b905090565b6060610ce060017f000000000000000000000000000000000000000000000000000000000000000061146a90919063ffffffff16565b905090565b6000610cf082610b2f565b610d0157610cfe6000610fba565b91505b60008290506000610d118261151a565b90506000608073ffffffffffffffffffffffffffffffffffffffff166373cc01546000846040518363ffffffff1660e01b8152600401610d5292919061275b565b602060405180830381865afa158015610d6f573d6000803e3d6000fd5b505050506040513d601f19601f82011682018060405250810190610d9391906127a0565b9050610d9e81611577565b9350505050919050565b6000610db382610e6b565b610dc457610dc16000610e78565b91505b60008290506000610dd48261151a565b90506000608073ffffffffffffffffffffffffffffffffffffffff166373cc01546001846040518363ffffffff1660e01b8152600401610e1592919061275b565b602060405180830381865afa158015610e32573d6000803e3d6000fd5b505050506040513d601f19601f82011682018060405250810190610e5691906127a0565b9050610e6181611581565b9350505050919050565b6000808214159050919050565b6000610e8582600161158b565b9050919050565b60006060838388610e9c8961151a565b610ea58961151a565b6040518463ffffffff1660e01b8152600401610ec3939291906127cd565b600060405180830381865afa158015610ee0573d6000803e3d6000fd5b505050506040513d6000823e3d601f19601f82011682018060405250810190610f099190612882565b9050610f148161162d565b91505095945050505050565b6000610f2b83610e6b565b610f3c57610f396000610e78565b92505b610f4582610e6b565b610f5657610f536000610e78565b91505b600083905060008390506000610f8b60018484608073ffffffffffffffffffffffffffffffffffffffff1663874b1c10610e8c565b905080935050505092915050565b6000808214159050919050565b6000610fb382600061158b565b9050919050565b6000610fc782600061158b565b9050919050565b60006060608073ffffffffffffffffffffffffffffffffffffffff1663c2d9695287610ff98861151a565b6110028861151a565b61100b8861151a565b6040518563ffffffff1660e01b815260040161102a94939291906128cb565b600060405180830381865afa158015611047573d6000803e3d6000fd5b505050506040513d6000823e3d601f19601f820116820180604052508101906110709190612882565b905061107b8161163b565b915050949350505050565b60007f000000000000000000000000000000000000000000000000000000000000000073ffffffffffffffffffffffffffffffffffffffff163073ffffffffffffffffffffffffffffffffffffffff1614801561110257507f000000000000000000000000000000000000000000000000000000000000000046145b1561112f577f0000000000000000000000000000000000000000000000000000000000000000905061113a565b611137611649565b90505b90565b60006040517f190100000000000000000000000000000000000000000000000000000000000081528360028201528260228201526042812091505092915050565b600080600060418451036111c35760008060006020870151925060408701519150606087015160001a90506111b5888285856116df565b9550955095505050506111d3565b60006002855160001b9250925092505b9250925092565b600060038111156111ee576111ed612925565b5b82600381111561120157611200612925565b5b031561133a576001600381111561121b5761121a612925565b5b82600381111561122e5761122d612925565b5b03611265576040517ff645eedf00000000000000000000000000000000000000000000000000000000815260040160405180910390fd5b6002600381111561127957611278612925565b5b82600381111561128c5761128b612925565b5b036112d1578060001c6040517ffce698f70000000000000000000000000000000000000000000000000000000081526004016112c89190612278565b60405180910390fd5b6003808111156112e4576112e3612925565b5b8260038111156112f7576112f6612925565b5b0361133957806040517fd78bce0c0000000000000000000000000000000000000000000000000000000081526004016113309190612954565b60405180910390fd5b5b5050565b6060608073ffffffffffffffffffffffffffffffffffffffff1663a1848ff3856113678661151a565b856040516020016113789190612990565b6040516020818303038152906040526040518463ffffffff1660e01b81526004016113a5939291906127cd565b600060405180830381865afa1580156113c2573d6000803e3d6000fd5b505050506040513d6000823e3d601f19601f820116820180604052508101906113eb9190612882565b90509392505050565b60006114018260006117d3565b9050919050565b6000611414838361186d565b905092915050565b600061142883836118e6565b905092915050565b600061143c838361195f565b905092915050565b600061144f826119d8565b9050919050565b600061146283836119ee565b905092915050565b606060ff60001b83146114875761148083611a66565b9050611514565b81805461149390612351565b80601f01602080910402602001604051908101604052809291908181526020018280546114bf90612351565b801561150c5780601f106114e15761010080835404028352916020019161150c565b820191906000526020600020905b8154815290600101906020018083116114ef57829003601f168201915b505050505090505b92915050565b6060602067ffffffffffffffff81111561153757611536611cfd565b5b6040519080825280601f01601f1916602001820160405280156115695781602001600182028036833780820191505090505b509050816020820152919050565b6000819050919050565b6000819050919050565b60006060608073ffffffffffffffffffffffffffffffffffffffff166319e1c5c46115b58661151a565b856040518363ffffffff1660e01b81526004016115d39291906129ab565b600060405180830381865afa1580156115f0573d6000803e3d6000fd5b505050506040513d6000823e3d601f19601f820116820180604052508101906116199190612882565b90506116248161163b565b91505092915050565b600060208201519050919050565b600060208201519050919050565b60007f8b73c3c69bb8fe3d512ecc4cf759cc79239f7b179b0ffacaa9a75d522b39400f7f00000000000000000000000000000000000000000000000000000000000000007f000000000000000000000000000000000000000000000000000000000000000046306040516020016116c49594939291906129db565b60405160208183030381529060405280519060200120905090565b60008060007f7fffffffffffffffffffffffffffffff5d576e7357a4501ddfe92f46681b20a08460001c111561171f5760006003859250925092506117c9565b6000600188888888604051600081526020016040526040516117449493929190612a2e565b6020604051602081039080840390855afa158015611766573d6000803e3d6000fd5b505050602060405103519050600073ffffffffffffffffffffffffffffffffffffffff168173ffffffffffffffffffffffffffffffffffffffff16036117ba57600060016000801b935093509350506117c9565b8060008060001b935093509350505b9450945094915050565b60006060608073ffffffffffffffffffffffffffffffffffffffff16635fa55ca784866040518363ffffffff1660e01b815260040161181392919061275b565b600060405180830381865afa158015611830573d6000803e3d6000fd5b505050506040513d6000823e3d601f19601f820116820180604052508101906118599190612882565b90506118648161163b565b91505092915050565b600061187883610b2f565b611889576118866000610fba565b92505b61189282610b2f565b6118a3576118a06000610fba565b91505b6000839050600083905060006118d860008484608073ffffffffffffffffffffffffffffffffffffffff1663eb274b77610e8c565b905080935050505092915050565b60006118f183610b2f565b611902576118ff6000610fba565b92505b61190b82610b2f565b61191c576119196000610fba565b91505b60008390506000839050600061195160008484608073ffffffffffffffffffffffffffffffffffffffff166392348b34610e8c565b905080935050505092915050565b600061196a83610f99565b61197b576119786000610fa6565b92505b61198482610f99565b611995576119926000610fa6565b91505b6000839050600083905060006119ca60008484608073ffffffffffffffffffffffffffffffffffffffff1663ae104cfd610e8c565b905080935050505092915050565b60006119e76000836001611ada565b9050919050565b60006119f983610e6b565b611a0a57611a076000610e78565b92505b611a1382610e6b565b611a2457611a216000610e78565b91505b600083905060008390506000611a5860018484608073ffffffffffffffffffffffffffffffffffffffff16622df619610e8c565b905080935050505092915050565b60606000611a7383611b7f565b90506000602067ffffffffffffffff811115611a9257611a91611cfd565b5b6040519080825280601f01601f191660200182016040528015611ac45781602001600182028036833780820191505090505b5090508181528360208201528092505050919050565b60006060608073ffffffffffffffffffffffffffffffffffffffff16634a5a111786611b058761151a565b866040518463ffffffff1660e01b8152600401611b2493929190612a73565b600060405180830381865afa158015611b41573d6000803e3d6000fd5b505050506040513d6000823e3d601f19601f82011682018060405250810190611b6a9190612882565b9050611b758161163b565b9150509392505050565b60008060ff8360001c169050601f811115611bc6576040517fb3512b0c00000000000000000000000000000000000000000000000000000000815260040160405180910390fd5b80915050919050565b6000604051905090565b600080fd5b600080fd5b6000819050919050565b611bf681611be3565b8114611c0157600080fd5b50565b600081359050611c1381611bed565b92915050565b600060208284031215611c2f57611c2e611bd9565b5b6000611c3d84828501611c04565b91505092915050565b600081519050919050565b600082825260208201905092915050565b60005b83811015611c80578082015181840152602081019050611c65565b60008484015250505050565b6000601f19601f8301169050919050565b6000611ca882611c46565b611cb28185611c51565b9350611cc2818560208601611c62565b611ccb81611c8c565b840191505092915050565b60006020820190508181036000830152611cf08184611c9d565b905092915050565b600080fd5b7f4e487b7100000000000000000000000000000000000000000000000000000000600052604160045260246000fd5b611d3582611c8c565b810181811067ffffffffffffffff82111715611d5457611d53611cfd565b5b80604052505050565b6000611d67611bcf565b9050611d738282611d2c565b919050565b600080fd5b6000819050919050565b611d9081611d7d565b8114611d9b57600080fd5b50565b600081359050611dad81611d87565b92915050565b600080fd5b600080fd5b600067ffffffffffffffff821115611dd857611dd7611cfd565b5b611de182611c8c565b9050602081019050919050565b82818337600083830152505050565b6000611e10611e0b84611dbd565b611d5d565b905082815260208101848484011115611e2c57611e2b611db8565b5b611e37848285611dee565b509392505050565b600082601f830112611e5457611e53611db3565b5b8135611e64848260208601611dfd565b91505092915050565b600060408284031215611e8357611e82611cf8565b5b611e8d6040611d5d565b90506000611e9d84828501611d9e565b600083015250602082013567ffffffffffffffff811115611ec157611ec0611d78565b5b611ecd84828501611e3f565b60208301525092915050565b600060208284031215611eef57611eee611bd9565b5b600082013567ffffffffffffffff811115611f0d57611f0c611bde565b5b611f1984828501611e6d565b91505092915050565b600081519050919050565b600082825260208201905092915050565b6000611f4982611f22565b611f538185611f2d565b9350611f63818560208601611c62565b611f6c81611c8c565b840191505092915050565b60006020820190508181036000830152611f918184611f3e565b905092915050565b600060208284031215611faf57611fae611cf8565b5b611fb96020611d5d565b9050600082013567ffffffffffffffff811115611fd957611fd8611d78565b5b611fe584828501611e3f565b60008301525092915050565b60006020828403121561200757612006611bd9565b5b600082013567ffffffffffffffff81111561202557612024611bde565b5b61203184828501611f99565b91505092915050565b60007fff0000000000000000000000000000000000000000000000000000000000000082169050919050565b61206f8161203a565b82525050565b61207e81611be3565b82525050565b600073ffffffffffffffffffffffffffffffffffffffff82169050919050565b60006120af82612084565b9050919050565b6120bf816120a4565b82525050565b6120ce81611d7d565b82525050565b600081519050919050565b600082825260208201905092915050565b6000819050602082019050919050565b61210981611be3565b82525050565b600061211b8383612100565b60208301905092915050565b6000602082019050919050565b600061213f826120d4565b61214981856120df565b9350612154836120f0565b8060005b8381101561218557815161216c888261210f565b975061217783612127565b925050600181019050612158565b5085935050505092915050565b600060e0820190506121a7600083018a612066565b81810360208301526121b98189611c9d565b905081810360408301526121cd8188611c9d565b90506121dc6060830187612075565b6121e960808301866120b6565b6121f660a08301856120c5565b81810360c08301526122088184612134565b905098975050505050505050565b600060ff82169050919050565b61222c81612216565b82525050565b600061ffff82169050919050565b61224981612232565b82525050565b60006040820190506122646000830185612223565b6122716020830184612240565b9392505050565b600060208201905061228d6000830184612075565b92915050565b61229c816120a4565b81146122a757600080fd5b50565b6000813590506122b981612293565b92915050565b6000602082840312156122d5576122d4611bd9565b5b60006122e3848285016122aa565b91505092915050565b60008115159050919050565b612301816122ec565b82525050565b600060208201905061231c60008301846122f8565b92915050565b7f4e487b7100000000000000000000000000000000000000000000000000000000600052602260045260246000fd5b6000600282049050600182168061236957607f821691505b60208210810361237c5761237b612322565b5b50919050565b7f766f74696e67206973207374696c6c20696e2070726f67726573732100000000600082015250565b60006123b8601c83611c51565b91506123c382612382565b602082019050919050565b600060208201905081810360008301526123e7816123ab565b9050919050565b7f766f74696e6720697320616c72656164792066696e616c697a65642100000000600082015250565b6000612424601c83611c51565b915061242f826123ee565b602082019050919050565b6000602082019050818103600083015261245381612417565b9050919050565b7f4e487b7100000000000000000000000000000000000000000000000000000000600052603260045260246000fd5b7f4e487b7100000000000000000000000000000000000000000000000000000000600052601160045260246000fd5b60006124c382612216565b915060ff82036124d6576124d5612489565b5b600182019050919050565b60006040820190506124f660008301856120c5565b61250360208301846120c5565b9392505050565b7f6e6f20766f746520666f756e6421000000000000000000000000000000000000600082015250565b6000612540600e83611c51565b915061254b8261250a565b602082019050919050565b6000602082019050818103600083015261256f81612533565b9050919050565b7f766f74696e67206973206f766572210000000000000000000000000000000000600082015250565b60006125ac600f83611c51565b91506125b782612576565b602082019050919050565b600060208201905081810360008301526125db8161259f565b9050919050565b7f616c726561647920766f74656421000000000000000000000000000000000000600082015250565b6000612618600e83611c51565b9150612623826125e2565b602082019050919050565b600060208201905081810360008301526126478161260b565b9050919050565b7f766f74696e672069732066696e616c697a656421000000000000000000000000600082015250565b6000612684601483611c51565b915061268f8261264e565b602082019050919050565b600060208201905081810360008301526126b381612677565b9050919050565b7f766f74696e67206973206e6f742066696e616c697a6564210000000000000000600082015250565b60006126f0601883611c51565b91506126fb826126ba565b602082019050919050565b6000602082019050818103600083015261271f816126e3565b9050919050565b600061273182612216565b915061273c83612216565b9250828203905060ff81111561275557612754612489565b5b92915050565b60006040820190506127706000830185612223565b81810360208301526127828184611f3e565b90509392505050565b60008151905061279a81611bed565b92915050565b6000602082840312156127b6576127b5611bd9565b5b60006127c48482850161278b565b91505092915050565b60006060820190506127e26000830186612223565b81810360208301526127f48185611f3e565b905081810360408301526128088184611f3e565b9050949350505050565b600061282561282084611dbd565b611d5d565b90508281526020810184848401111561284157612840611db8565b5b61284c848285611c62565b509392505050565b600082601f83011261286957612868611db3565b5b8151612879848260208601612812565b91505092915050565b60006020828403121561289857612897611bd9565b5b600082015167ffffffffffffffff8111156128b6576128b5611bde565b5b6128c284828501612854565b91505092915050565b60006080820190506128e06000830187612223565b81810360208301526128f28186611f3e565b905081810360408301526129068185611f3e565b9050818103606083015261291a8184611f3e565b905095945050505050565b7f4e487b7100000000000000000000000000000000000000000000000000000000600052602160045260246000fd5b600060208201905061296960008301846120c5565b92915050565b6000819050919050565b61298a61298582611d7d565b61296f565b82525050565b600061299c8284612979565b60208201915081905092915050565b600060408201905081810360008301526129c58185611f3e565b90506129d46020830184612223565b9392505050565b600060a0820190506129f060008301886120c5565b6129fd60208301876120c5565b612a0a60408301866120c5565b612a176060830185612075565b612a2460808301846120b6565b9695505050505050565b6000608082019050612a4360008301876120c5565b612a506020830186612223565b612a5d60408301856120c5565b612a6a60608301846120c5565b95945050505050565b6000606082019050612a886000830186612223565b8181036020830152612a9a8185611f3e565b9050612aa96040830184612223565b94935050505056fea2646970667358221220c4507620569a7f5735daf4c98fd6587c8dbd147e84ac0b71ca21ae3cc5e9fa8164736f6c63430008140033",
  "linkReferences": {},
  "deployedLinkReferences": {}
}